S00F0000526F626F61726D2E7372656343
S11300000C9446000C9450000C9450000C94500036
S11300100C9450000C9450000C9450000C9450001C
S11300200C9450000C9450000C9450000C9450000C
S11300300C9450000C9450000C9450000C945000FC
S11300400C9450000C9450000C9450000C945000EC
S11300500C9450000C9450000C9450000C945000DC
S11300600C9450000C9450000C9450000C945000CC
S11300700C9450000C9450000C9450000C945000BC
S11300800C9450000C9450000C94500011241FBE8A
S1130090CFEFD0E1DEBFCDBF0E9452000C947400BC
S11300A00C9400008DE183BF38EA3FBD22E12EBDF0
S11300B080E29EE497BD86BD1DBC1CBC30938B00C2
S11300C020938A009093810080938000109289008D
S11300D01CBC8FE08ABB80EE87BB82B98FE1809322
S10F00E0640084E681BFFECFF894FFCFDB
S9030000FC
